{
  "contractName": "TokenFactory",
  "abi": [
    {
      "constant": true,
      "inputs": [
        {
          "name": "",
          "type": "address"
        },
        {
          "name": "",
          "type": "uint256"
        }
      ],
      "name": "tokens",
      "outputs": [
        {
          "name": "",
          "type": "address"
        }
      ],
      "payable": false,
      "stateMutability": "view",
      "type": "function"
    },
    {
      "inputs": [],
      "payable": false,
      "stateMutability": "nonpayable",
      "type": "constructor"
    },
    {
      "anonymous": false,
      "inputs": [
        {
          "indexed": false,
          "name": "_owner",
          "type": "address"
        },
        {
          "indexed": false,
          "name": "_token",
          "type": "address"
        }
      ],
      "name": "TokenCreated",
      "type": "event"
    },
    {
      "constant": false,
      "inputs": [
        {
          "name": "_god",
          "type": "address"
        }
      ],
      "name": "changeAdresses",
      "outputs": [],
      "payable": false,
      "stateMutability": "nonpayable",
      "type": "function"
    },
    {
      "constant": false,
      "inputs": [
        {
          "name": "_name",
          "type": "string"
        },
        {
          "name": "_symbol",
          "type": "string"
        },
        {
          "name": "_decimals",
          "type": "uint8"
        },
        {
          "name": "_INITIAL_SUPPLY",
          "type": "uint256"
        },
        {
          "name": "_rate",
          "type": "uint256"
        },
        {
          "name": "_wallet",
          "type": "address"
        }
      ],
      "name": "createCommunityToken",
      "outputs": [
        {
          "name": "",
          "type": "address"
        }
      ],
      "payable": false,
      "stateMutability": "nonpayable",
      "type": "function"
    },
    {
      "constant": false,
      "inputs": [
        {
          "name": "_rate",
          "type": "uint256"
        },
        {
          "name": "_wallet",
          "type": "address"
        }
      ],
      "name": "createCommunity",
      "outputs": [
        {
          "name": "",
          "type": "address"
        }
      ],
      "payable": false,
      "stateMutability": "nonpayable",
      "type": "function"
    },
    {
      "constant": false,
      "inputs": [
        {
          "name": "_name",
          "type": "string"
        },
        {
          "name": "_symbol",
          "type": "string"
        },
        {
          "name": "_decimals",
          "type": "uint8"
        },
        {
          "name": "_INITIAL_SUPPLY",
          "type": "uint256"
        }
      ],
      "name": "createToken",
      "outputs": [
        {
          "name": "",
          "type": "address"
        }
      ],
      "payable": false,
      "stateMutability": "nonpayable",
      "type": "function"
    },
    {
      "constant": true,
      "inputs": [
        {
          "name": "_owner",
          "type": "address"
        }
      ],
      "name": "hasTokens",
      "outputs": [
        {
          "name": "",
          "type": "bool"
        }
      ],
      "payable": false,
      "stateMutability": "view",
      "type": "function"
    },
    {
      "constant": true,
      "inputs": [
        {
          "name": "_owner",
          "type": "address"
        }
      ],
      "name": "getTokens",
      "outputs": [
        {
          "name": "",
          "type": "address[]"
        }
      ],
      "payable": false,
      "stateMutability": "view",
      "type": "function"
    }
  ],
  "bytecode": "0x608060405234801561001057600080fd5b5060008054600160a060020a031916331790556119eb806100326000396000f3006080604052600436106100695763ffffffff60e060020a6000350416630f261bdd811461006e578063210f5dda1461013e5780633cefc1e0146101e0578063450efe21146102155780634abf825d146102865780635737b697146102aa5780638c61f279146102cd575b600080fd5b34801561007a57600080fd5b506040805160206004803580820135601f810184900484028501840190955284845261012294369492936024939284019190819084018382808284375050604080516020601f89358b018035918201839004830284018301909452808352979a9998810197919650918201945092508291508401838280828437509497505050833560ff16945050506020820135916040810135915060600135600160a060020a03166102f1565b60408051600160a060020a039092168252519081900360200190f35b34801561014a57600080fd5b506040805160206004803580820135601f810184900484028501840190955284845261012294369492936024939284019190819084018382808284375050604080516020601f89358b018035918201839004830284018301909452808352979a9998810197919650918201945092508291508401838280828437509497505050833560ff16945050506020909101359050610439565b3480156101ec57600080fd5b50610201600160a060020a03600435166105e2565b604080519115158252519081900360200190f35b34801561022157600080fd5b50610236600160a060020a03600435166105fe565b60408051602080825283518183015283519192839290830191858101910280838360005b8381101561027257818101518382015260200161025a565b505050509050019250505060405180910390f35b34801561029257600080fd5b50610122600160a060020a0360043516602435610674565b3480156102b657600080fd5b506102cb600160a060020a03600435166106ab565b005b3480156102d957600080fd5b50610122600435600160a060020a03602435166106f2565b6000806000806103038a8a8a8a610439565b9250858561030f610738565b918252600160a060020a03166020820152604080519182900301906000f08015801561033f573d6000803e3d6000fd5b50915081600160a060020a031663144fa6d7846040518263ffffffff1660e060020a0281526004018082600160a060020a0316600160a060020a03168152602001915050600060405180830381600087803b15801561039d57600080fd5b505af11580156103b1573d6000803e3d6000fd5b5050505081905082600160a060020a03166330a9d2cb826040518263ffffffff1660e060020a0281526004018082600160a060020a0316600160a060020a03168152602001915050600060405180830381600087803b15801561041357600080fd5b505af1158015610427573d6000803e3d6000fd5b50929c9b505050505050505050505050565b6000808585858533610449610748565b60ff8416604082015260608101839052600160a060020a038216608082015260a08082528651908201528551819060208083019160c08401918a019080838360005b838110156104a357818101518382015260200161048b565b50505050905090810190601f1680156104d05780820380516001836020036101000a031916815260200191505b50838103825287518152875160209182019189019080838360005b838110156105035781810151838201526020016104eb565b50505050905090810190601f1680156105305780820380516001836020036101000a031916815260200191505b50975050505050505050604051809103906000f080158015610556573d6000803e3d6000fd5b5033600081815260016020818152604080842080549384018155845292819020909101805473ffffffffffffffffffffffffffffffffffffffff1916600160a060020a03861690811790915582519384529083015280519293507fd5f9bdf12adf29dab0248c349842c3822d53ae2bb4f36352f301630d018c813992918290030190a195945050505050565b600160a060020a03166000908152600160205260408120541190565b600160a060020a03811660009081526001602090815260409182902080548351818402810184019094528084526060939283018282801561066857602002820191906000526020600020905b8154600160a060020a0316815260019091019060200180831161064a575b50505050509050919050565b60016020528160005260406000208181548110151561068f57fe5b600091825260209091200154600160a060020a03169150829050565b600054600160a060020a03163314156106c357600080fd5b6000805473ffffffffffffffffffffffffffffffffffffffff1916600160a060020a0392909216919091179055565b60008083836106ff610738565b918252600160a060020a03166020820152604080519182900301906000f08015801561072f573d6000803e3d6000fd5b50949350505050565b6040516105268061075983390190565b604051610d4180610c7f833901905600608060405234801561001057600080fd5b506040516040806105268339810160405280516020909101516000805460029390935533600160a060020a031993841617909216600160a060020a039091161781556104c490819061006290396000f30060806040526004361061008d5763ffffffff7c0100000000000000000000000000000000000000000000000000000000600035041663144fa6d78114610098578063715018a6146100b95780638092db55146100ce5780638da5cb5b146100f7578063b688a36314610128578063d66d9e191461013d578063f2fde38b14610152578063fc0c546a14610173575b61009633610188565b005b3480156100a457600080fd5b50610096600160a060020a0360043516610262565b3480156100c557600080fd5b50610096610291565b3480156100da57600080fd5b506100e36102fd565b604080519115158252519081900360200190f35b34801561010357600080fd5b5061010c61031e565b60408051600160a060020a039092168252519081900360200190f35b34801561013457600080fd5b5061009661032d565b34801561014957600080fd5b50610096610377565b34801561015e57600080fd5b50610096600160a060020a03600435166103ba565b34801561017f57600080fd5b5061010c6103dd565b346000600160a060020a03831615156101a057600080fd5b8115156101ac57600080fd5b6002546101c090839063ffffffff6103ec16565b600354604080517fa9059cbb000000000000000000000000000000000000000000000000000000008152600160a060020a03878116600483015260248201859052915193945091169163a9059cbb916044808201926020929091908290030181600087803b15801561023157600080fd5b505af1158015610245573d6000803e3d6000fd5b505050506040513d602081101561025b57600080fd5b5050505050565b6003805473ffffffffffffffffffffffffffffffffffffffff1916600160a060020a0392909216919091179055565b600054600160a060020a031633146102a857600080fd5b60008054604051600160a060020a03909116917ff8df31144d9c2f0f6b59d69b8b98abd5459d07f2742c4df920b25aae33c6482091a26000805473ffffffffffffffffffffffffffffffffffffffff19169055565b60035474010000000000000000000000000000000000000000900460ff1681565b600054600160a060020a031681565b3360009081526001602052604090205460ff161561034a57600080fd5b610352610375565b336000908152600160208190526040909120805460ff1916909117905561037580565b565b3360009081526001602052604090205460ff16151561039557600080fd5b61039d610375565b336000908152600160205260409020805460ff1916905561037580565b600054600160a060020a031633146103d157600080fd5b6103da8161041b565b50565b600354600160a060020a031681565b60008215156103fd57506000610415565b5081810281838281151561040d57fe5b041461041557fe5b92915050565b600160a060020a038116151561043057600080fd5b60008054604051600160a060020a03808516939216917f8be0079c531659141344cd1fd0a4f28419497f9722a3daafe3b4186f6b6457e091a36000805473ffffffffffffffffffffffffffffffffffffffff1916600160a060020a03929092169190911790555600a165627a7a7230582063afb600e2db18e610d555cb9fe426dc445084f9765900958bde4a484ced82f7002960806040526006805460a860020a60ff021916905534801561002057600080fd5b50604051610d41380380610d418339810160409081528151602080840151928401516060850151608086015160038054600160a060020a0319163317905593860180519096959095019491939092909161008091600491908801906100f8565b5083516100949060059060208701906100f8565b5060068054600184905560ff191660ff949094169390931761010060a860020a03191661010033021790925560038054600160a060020a031916600160a060020a039384161790819055909116600090815260208190526040902055506101939050565b828054600181600116156101000203166002900490600052602060002090601f016020900481019282601f1061013957805160ff1916838001178555610166565b82800160010185558215610166579182015b8281111561016657825182559160200191906001019061014b565b50610172929150610176565b5090565b61019091905b80821115610172576000815560010161017c565b90565b610b9f806101a26000396000f3006080604052600436106100fb5763ffffffff7c010000000000000000000000000000000000000000000000000000000060003504166306fdde038114610100578063095ea7b31461018a57806318160ddd146101c257806323b872dd146101e957806330a9d2cb14610213578063313ce56714610236578063661884631461026157806370a0823114610285578063715018a6146102a65780638092db55146102bb5780638da5cb5b146102d0578063907af6c01461030157806395d89b4114610316578063a9059cbb1461032b578063c83dd2311461034f578063d73dd62314610364578063dd62ed3e14610388578063f2fde38b146103af575b600080fd5b34801561010c57600080fd5b506101156103d0565b6040805160208082528351818301528351919283929083019185019080838360005b8381101561014f578181015183820152602001610137565b50505050905090810190601f16801561017c5780820380516001836020036101000a031916815260200191505b509250505060405180910390f35b34801561019657600080fd5b506101ae600160a060020a036004351660243561045e565b604080519115158252519081900360200190f35b3480156101ce57600080fd5b506101d76104c4565b60408051918252519081900360200190f35b3480156101f557600080fd5b506101ae600160a060020a03600435811690602435166044356104ca565b34801561021f57600080fd5b50610234600160a060020a036004351661063f565b005b34801561024257600080fd5b5061024b6106da565b6040805160ff9092168252519081900360200190f35b34801561026d57600080fd5b506101ae600160a060020a03600435166024356106e3565b34801561029157600080fd5b506101d7600160a060020a03600435166107d2565b3480156102b257600080fd5b506102346107ed565b3480156102c757600080fd5b506101ae61085b565b3480156102dc57600080fd5b506102e561087d565b60408051600160a060020a039092168252519081900360200190f35b34801561030d57600080fd5b506101d761088c565b34801561032257600080fd5b5061011561089b565b34801561033757600080fd5b506101ae600160a060020a03600435166024356108f6565b34801561035b57600080fd5b506102e56109d5565b34801561037057600080fd5b506101ae600160a060020a03600435166024356109e9565b34801561039457600080fd5b506101d7600160a060020a0360043581169060243516610a82565b3480156103bb57600080fd5b50610234600160a060020a0360043516610aad565b6004805460408051602060026001851615610100026000190190941693909304601f810184900484028201840190925281815292918301828280156104565780601f1061042b57610100808354040283529160200191610456565b820191906000526020600020905b81548152906001019060200180831161043957829003601f168201915b505050505081565b336000818152600260209081526040808320600160a060020a038716808552908352818420869055815186815291519394909390927f8c5be1e5ebec7d5bd14f71427d1e84f3dd0314c0f7b2291e5b200ac8c7c3b925928290030190a350600192915050565b60015490565b600160a060020a0383166000908152602081905260408120548211156104ef57600080fd5b600160a060020a038416600090815260026020908152604080832033845290915290205482111561051f57600080fd5b600160a060020a038316151561053457600080fd5b600160a060020a03841660009081526020819052604090205461055d908363ffffffff610ad016565b600160a060020a038086166000908152602081905260408082209390935590851681522054610592908363ffffffff610ae216565b600160a060020a038085166000908152602081815260408083209490945591871681526002825282812033825290915220546105d4908363ffffffff610ad016565b600160a060020a03808616600081815260026020908152604080832033845282529182902094909455805186815290519287169391927fddf252ad1be2c89b69c2b068fc378daa952ba7f163c4a11628f55a4df523b3ef929181900390910190a35060019392505050565b6006546101009004600160a060020a0316331461065b57600080fd5b6006547501000000000000000000000000000000000000000000900460ff161561068457600080fd5b600154600160a060020a039091166000908152602081905260409020556006805475ff00000000000000000000000000000000000000000019167501000000000000000000000000000000000000000000179055565b60065460ff1681565b336000908152600260209081526040808320600160a060020a038616845290915281205480831061073757336000908152600260209081526040808320600160a060020a038816845290915281205561076c565b610747818463ffffffff610ad016565b336000908152600260209081526040808320600160a060020a03891684529091529020555b336000818152600260209081526040808320600160a060020a0389168085529083529281902054815190815290519293927f8c5be1e5ebec7d5bd14f71427d1e84f3dd0314c0f7b2291e5b200ac8c7c3b925929181900390910190a35060019392505050565b600160a060020a031660009081526020819052604090205490565b600354600160a060020a0316331461080457600080fd5b600354604051600160a060020a03909116907ff8df31144d9c2f0f6b59d69b8b98abd5459d07f2742c4df920b25aae33c6482090600090a26003805473ffffffffffffffffffffffffffffffffffffffff19169055565b6006547501000000000000000000000000000000000000000000900460ff1681565b600354600160a060020a031681565b60065460ff908116600a0a1690565b6005805460408051602060026001851615610100026000190190941693909304601f810184900484028201840190925281815292918301828280156104565780601f1061042b57610100808354040283529160200191610456565b3360009081526020819052604081205482111561091257600080fd5b600160a060020a038316151561092757600080fd5b33600090815260208190526040902054610947908363ffffffff610ad016565b3360009081526020819052604080822092909255600160a060020a03851681522054610979908363ffffffff610ae216565b600160a060020a038416600081815260208181526040918290209390935580518581529051919233927fddf252ad1be2c89b69c2b068fc378daa952ba7f163c4a11628f55a4df523b3ef9281900390910190a350600192915050565b6006546101009004600160a060020a031681565b336000908152600260209081526040808320600160a060020a0386168452909152812054610a1d908363ffffffff610ae216565b336000818152600260209081526040808320600160a060020a0389168085529083529281902085905580519485525191937f8c5be1e5ebec7d5bd14f71427d1e84f3dd0314c0f7b2291e5b200ac8c7c3b925929081900390910190a350600192915050565b600160a060020a03918216600090815260026020908152604080832093909416825291909152205490565b600354600160a060020a03163314610ac457600080fd5b610acd81610af5565b50565b600082821115610adc57fe5b50900390565b81810182811015610aef57fe5b92915050565b600160a060020a0381161515610b0a57600080fd5b600354604051600160a060020a038084169216907f8be0079c531659141344cd1fd0a4f28419497f9722a3daafe3b4186f6b6457e090600090a36003805473ffffffffffffffffffffffffffffffffffffffff1916600160a060020a03929092169190911790555600a165627a7a72305820623b73dc1c365a6c5300da919573551b38ac4c15f37f492d274ca55c86625fc30029a165627a7a72305820ef639850196801f67003edb2110d247c8d7dfacc6442a4b34d7d0578897b6e530029",
  "source": "pragma solidity ^0.4.24;\n\n\nimport \"./Token.sol\";\nimport \"./Tokensale.sol\";\nimport \"./Community.sol\";\n\n\ncontract TokenFactory {\n\n\n    address god;\n    mapping (address => address[]) public tokens;\n\n\n    event TokenCreated(address _owner, address _token);\n\n    // define zheton as Token contract. There is might be a pitfall, cause tokensale await ERC20\n  //  Token public zheton;\n   constructor() public {\n        god = msg.sender;\n    }\n\n    modifier onlyGod(){\n        require(msg.sender != god);\n        _;\n    }\n\n    function changeAdresses(address _god) public onlyGod {\n        god = _god;\n    }\n\n\n// Function that create Token, tokensale contract and start it at once\n// Note that it can be burn a lot of gas, so I think we need to split this function in the future\n     function createCommunityToken(string _name,\n     string _symbol, uint8 _decimals,\n     uint _INITIAL_SUPPLY, uint256 _rate, address _wallet) public returns(address){\n       Token token = createToken(_name,_symbol,_decimals,_INITIAL_SUPPLY);\n       Community community = new Community(_rate,_wallet);\n       community.setToken(token);\n       address cdr = address(community);  \n       token.prepareCommunity(cdr);\n      // Tokensale tokenSale = new\n         return cdr;\n   }\n\n// Function that creates tokensale with given parameters\n    function createCommunity(uint256 _rate, address _wallet) public returns(address) {\n        Community community = new Community(_rate,_wallet);\n        return community;\n    }\n\n\n// function that create Simple Token without tokensale\n// Returns Token object with new address\n    function createToken(string _name,\n    string _symbol,\n    uint8 _decimals,\n    uint _INITIAL_SUPPLY) public returns(Token) {\n  //  address token = 0x0;\n      Token token = new Token(_name, _symbol, _decimals, _INITIAL_SUPPLY, msg.sender);\n\n        tokens[msg.sender].push(token);\n        emit TokenCreated(msg.sender, address(token));\n\n       return token;\n\n    }\n\n    function hasTokens(address _owner) view public returns (bool){\n        return tokens[_owner].length >0;\n    }\n\n    function getTokens(address _owner) view public returns(address[]) {\n            return tokens[_owner];\n    }\n}\n",
  "sourcePath": "/home/lexnnov/projects/Token-Factory/contracts/TokenFactory.sol",
  "compiler": {
    "name": "solc",
    "version": "0.4.24+commit.e67f0147.Emscripten.clang"
  },
  "schemaVersion": "2.0.1",
  "updatedAt": "2018-11-22T09:05:02.221Z"
}