{
  "contractName": "TokenFactory",
  "abi": [
    {
      "constant": true,
      "inputs": [
        {
          "name": "",
          "type": "address"
        },
        {
          "name": "",
          "type": "uint256"
        }
      ],
      "name": "tokens",
      "outputs": [
        {
          "name": "",
          "type": "address"
        }
      ],
      "payable": false,
      "stateMutability": "view",
      "type": "function"
    },
    {
      "constant": true,
      "inputs": [
        {
          "name": "",
          "type": "uint256"
        }
      ],
      "name": "observers",
      "outputs": [
        {
          "name": "",
          "type": "address"
        }
      ],
      "payable": false,
      "stateMutability": "view",
      "type": "function"
    },
    {
      "inputs": [],
      "payable": false,
      "stateMutability": "nonpayable",
      "type": "constructor"
    },
    {
      "anonymous": false,
      "inputs": [
        {
          "indexed": false,
          "name": "_owner",
          "type": "address"
        },
        {
          "indexed": false,
          "name": "_token",
          "type": "address"
        }
      ],
      "name": "TokenCreated",
      "type": "event"
    },
    {
      "constant": false,
      "inputs": [
        {
          "name": "_god",
          "type": "address"
        }
      ],
      "name": "changeAdresses",
      "outputs": [],
      "payable": false,
      "stateMutability": "nonpayable",
      "type": "function"
    },
    {
      "constant": false,
      "inputs": [
        {
          "name": "_observer",
          "type": "address"
        }
      ],
      "name": "addObserver",
      "outputs": [],
      "payable": false,
      "stateMutability": "nonpayable",
      "type": "function"
    },
    {
      "constant": false,
      "inputs": [
        {
          "name": "_name",
          "type": "string"
        },
        {
          "name": "_symbol",
          "type": "string"
        },
        {
          "name": "_decimals",
          "type": "uint8"
        },
        {
          "name": "_INITIAL_SUPPLY",
          "type": "uint256"
        },
        {
          "name": "_rate",
          "type": "uint256"
        },
        {
          "name": "_wallet",
          "type": "address"
        }
      ],
      "name": "createTokensaleToken",
      "outputs": [
        {
          "name": "",
          "type": "address"
        }
      ],
      "payable": false,
      "stateMutability": "nonpayable",
      "type": "function"
    },
    {
      "constant": false,
      "inputs": [
        {
          "name": "_rate",
          "type": "uint256"
        },
        {
          "name": "_wallet",
          "type": "address"
        },
        {
          "name": "_token",
          "type": "address"
        }
      ],
      "name": "createTokensale",
      "outputs": [
        {
          "name": "",
          "type": "address"
        }
      ],
      "payable": false,
      "stateMutability": "nonpayable",
      "type": "function"
    },
    {
      "constant": false,
      "inputs": [
        {
          "name": "_name",
          "type": "string"
        },
        {
          "name": "_symbol",
          "type": "string"
        },
        {
          "name": "_decimals",
          "type": "uint8"
        },
        {
          "name": "_INITIAL_SUPPLY",
          "type": "uint256"
        }
      ],
      "name": "createToken",
      "outputs": [
        {
          "name": "",
          "type": "address"
        }
      ],
      "payable": false,
      "stateMutability": "nonpayable",
      "type": "function"
    },
    {
      "constant": true,
      "inputs": [
        {
          "name": "_owner",
          "type": "address"
        }
      ],
      "name": "getTokens",
      "outputs": [
        {
          "name": "",
          "type": "address[]"
        }
      ],
      "payable": false,
      "stateMutability": "view",
      "type": "function"
    }
  ],
  "bytecode": "0x608060405234801561001057600080fd5b5060008054600160a060020a03191633179055611850806100326000396000f30060806040526004361061008d5763ffffffff7c0100000000000000000000000000000000000000000000000000000000600035041663210f5dda811461009257806329c66c9f14610150578063450efe21146102045780634abf825d146102755780635737b697146102995780635fd1bd9d146102bc578063accc7681146102d4578063fb8ec972146102fe575b600080fd5b34801561009e57600080fd5b506040805160206004803580820135601f810184900484028501840190955284845261013494369492936024939284019190819084018382808284375050604080516020601f89358b018035918201839004830284018301909452808352979a9998810197919650918201945092508291508401838280828437509497505050833560ff1694505050602090910135905061031f565b60408051600160a060020a039092168252519081900360200190f35b34801561015c57600080fd5b506040805160206004803580820135601f810184900484028501840190955284845261013494369492936024939284019190819084018382808284375050604080516020601f89358b018035918201839004830284018301909452808352979a9998810197919650918201945092508291508401838280828437509497505050833560ff16945050506020820135916040810135915060600135600160a060020a03166104c8565b34801561021057600080fd5b50610225600160a060020a0360043516610581565b60408051602080825283518183015283519192839290830191858101910280838360005b83811015610261578181015183820152602001610249565b505050509050019250505060405180910390f35b34801561028157600080fd5b50610134600160a060020a03600435166024356105f7565b3480156102a557600080fd5b506102ba600160a060020a036004351661062e565b005b3480156102c857600080fd5b50610134600435610675565b3480156102e057600080fd5b50610134600435600160a060020a036024358116906044351661069d565b34801561030a57600080fd5b506102ba600160a060020a03600435166107bf565b600080858585853361032f610836565b60ff8416604082015260608101839052600160a060020a038216608082015260a08082528651908201528551819060208083019160c08401918a019080838360005b83811015610389578181015183820152602001610371565b50505050905090810190601f1680156103b65780820380516001836020036101000a031916815260200191505b50838103825287518152875160209182019189019080838360005b838110156103e95781810151838201526020016103d1565b50505050905090810190601f1680156104165780820380516001836020036101000a031916815260200191505b50975050505050505050604051809103906000f08015801561043c573d6000803e3d6000fd5b5033600081815260016020818152604080842080549384018155845292819020909101805473ffffffffffffffffffffffffffffffffffffffff1916600160a060020a03861690811790915582519384529083015280519293507fd5f9bdf12adf29dab0248c349842c3822d53ae2bb4f36352f301630d018c813992918290030190a195945050505050565b60008060006104d98989898961031f565b91506104e685858461069d565b905081600160a060020a03166319f7fc1f826040518263ffffffff167c01000000000000000000000000000000000000000000000000000000000281526004018082600160a060020a0316600160a060020a03168152602001915050600060405180830381600087803b15801561055c57600080fd5b505af1158015610570573d6000803e3d6000fd5b50929b9a5050505050505050505050565b600160a060020a0381166000908152600160209081526040918290208054835181840281018401909452808452606093928301828280156105eb57602002820191906000526020600020905b8154600160a060020a031681526001909101906020018083116105cd575b50505050509050919050565b60016020528160005260406000208181548110151561061257fe5b600091825260209091200154600160a060020a03169150829050565b600054600160a060020a031633141561064657600080fd5b6000805473ffffffffffffffffffffffffffffffffffffffff1916600160a060020a0392909216919091179055565b600280548290811061068357fe5b600091825260209091200154600160a060020a0316905081565b60008060008585856106ad610846565b928352600160a060020a039182166020840152166040808301919091525190819003606001906000f0801580156106e8573d6000803e3d6000fd5b509150600090505b6002548110156107b657600280548290811061070857fe5b6000918252602080832090910154604080517f024ae528000000000000000000000000000000000000000000000000000000008152600160a060020a0387811660048301528a811660248301529151919092169363024ae52893604480850194919392918390030190829087803b15801561078257600080fd5b505af1158015610796573d6000803e3d6000fd5b505050506040513d60208110156107ac57600080fd5b50506001016106f0565b50949350505050565b600054600160a060020a03163314156107d757600080fd5b600280546001810182556000919091527f405787fa12a823e0f2b7631cc41b3ba8828b3321ca811111fa75cd3aa3bb5ace01805473ffffffffffffffffffffffffffffffffffffffff1916600160a060020a0392909216919091179055565b604051610d038061085783390190565b6040516102cb8061155a83390190560060806040526006805460a860020a60ff021916905534801561002057600080fd5b50604051610d03380380610d038339810160409081528151602080840151928401516060850151608086015160038054600160a060020a0319163317905593860180519096959095019491939092909161008091600491908801906100e9565b5083516100949060059060208701906100e9565b506006805460019390935560ff1990921660ff939093169290921761010060a860020a031916610100330217905560038054600160a060020a031916600160a060020a03909216919091179055506101849050565b828054600181600116156101000203166002900490600052602060002090601f016020900481019282601f1061012a57805160ff1916838001178555610157565b82800160010185558215610157579182015b8281111561015757825182559160200191906001019061013c565b50610163929150610167565b5090565b61018191905b80821115610163576000815560010161016d565b90565b610b70806101936000396000f3006080604052600436106100f05763ffffffff7c010000000000000000000000000000000000000000000000000000000060003504166306fdde0381146100f5578063095ea7b31461017f57806318160ddd146101b757806319f7fc1f146101de57806323b872dd14610201578063313ce5671461022b578063661884631461025657806370a082311461027a578063715018a61461029b5780638092db55146102b05780638da5cb5b146102c557806395d89b41146102f6578063a9059cbb1461030b578063c83dd2311461032f578063d73dd62314610344578063dd62ed3e14610368578063f2fde38b1461038f575b600080fd5b34801561010157600080fd5b5061010a6103b0565b6040805160208082528351818301528351919283929083019185019080838360005b8381101561014457818101518382015260200161012c565b50505050905090810190601f1680156101715780820380516001836020036101000a031916815260200191505b509250505060405180910390f35b34801561018b57600080fd5b506101a3600160a060020a036004351660243561043e565b604080519115158252519081900360200190f35b3480156101c357600080fd5b506101cc6104a4565b60408051918252519081900360200190f35b3480156101ea57600080fd5b506101ff600160a060020a03600435166104aa565b005b34801561020d57600080fd5b506101a3600160a060020a0360043581169060243516604435610545565b34801561023757600080fd5b506102406106ba565b6040805160ff9092168252519081900360200190f35b34801561026257600080fd5b506101a3600160a060020a03600435166024356106c3565b34801561028657600080fd5b506101cc600160a060020a03600435166107b2565b3480156102a757600080fd5b506101ff6107cd565b3480156102bc57600080fd5b506101a361083b565b3480156102d157600080fd5b506102da61085d565b60408051600160a060020a039092168252519081900360200190f35b34801561030257600080fd5b5061010a61086c565b34801561031757600080fd5b506101a3600160a060020a03600435166024356108c7565b34801561033b57600080fd5b506102da6109a6565b34801561035057600080fd5b506101a3600160a060020a03600435166024356109ba565b34801561037457600080fd5b506101cc600160a060020a0360043581169060243516610a53565b34801561039b57600080fd5b506101ff600160a060020a0360043516610a7e565b6004805460408051602060026001851615610100026000190190941693909304601f810184900484028201840190925281815292918301828280156104365780601f1061040b57610100808354040283529160200191610436565b820191906000526020600020905b81548152906001019060200180831161041957829003601f168201915b505050505081565b336000818152600260209081526040808320600160a060020a038716808552908352818420869055815186815291519394909390927f8c5be1e5ebec7d5bd14f71427d1e84f3dd0314c0f7b2291e5b200ac8c7c3b925928290030190a350600192915050565b60015490565b6006546101009004600160a060020a031633146104c657600080fd5b6006547501000000000000000000000000000000000000000000900460ff16156104ef57600080fd5b600154600160a060020a039091166000908152602081905260409020556006805475ff00000000000000000000000000000000000000000019167501000000000000000000000000000000000000000000179055565b600160a060020a03831660009081526020819052604081205482111561056a57600080fd5b600160a060020a038416600090815260026020908152604080832033845290915290205482111561059a57600080fd5b600160a060020a03831615156105af57600080fd5b600160a060020a0384166000908152602081905260409020546105d8908363ffffffff610aa116565b600160a060020a03808616600090815260208190526040808220939093559085168152205461060d908363ffffffff610ab316565b600160a060020a0380851660009081526020818152604080832094909455918716815260028252828120338252909152205461064f908363ffffffff610aa116565b600160a060020a03808616600081815260026020908152604080832033845282529182902094909455805186815290519287169391927fddf252ad1be2c89b69c2b068fc378daa952ba7f163c4a11628f55a4df523b3ef929181900390910190a35060019392505050565b60065460ff1681565b336000908152600260209081526040808320600160a060020a038616845290915281205480831061071757336000908152600260209081526040808320600160a060020a038816845290915281205561074c565b610727818463ffffffff610aa116565b336000908152600260209081526040808320600160a060020a03891684529091529020555b336000818152600260209081526040808320600160a060020a0389168085529083529281902054815190815290519293927f8c5be1e5ebec7d5bd14f71427d1e84f3dd0314c0f7b2291e5b200ac8c7c3b925929181900390910190a35060019392505050565b600160a060020a031660009081526020819052604090205490565b600354600160a060020a031633146107e457600080fd5b600354604051600160a060020a03909116907ff8df31144d9c2f0f6b59d69b8b98abd5459d07f2742c4df920b25aae33c6482090600090a26003805473ffffffffffffffffffffffffffffffffffffffff19169055565b6006547501000000000000000000000000000000000000000000900460ff1681565b600354600160a060020a031681565b6005805460408051602060026001851615610100026000190190941693909304601f810184900484028201840190925281815292918301828280156104365780601f1061040b57610100808354040283529160200191610436565b336000908152602081905260408120548211156108e357600080fd5b600160a060020a03831615156108f857600080fd5b33600090815260208190526040902054610918908363ffffffff610aa116565b3360009081526020819052604080822092909255600160a060020a0385168152205461094a908363ffffffff610ab316565b600160a060020a038416600081815260208181526040918290209390935580518581529051919233927fddf252ad1be2c89b69c2b068fc378daa952ba7f163c4a11628f55a4df523b3ef9281900390910190a350600192915050565b6006546101009004600160a060020a031681565b336000908152600260209081526040808320600160a060020a03861684529091528120546109ee908363ffffffff610ab316565b336000818152600260209081526040808320600160a060020a0389168085529083529281902085905580519485525191937f8c5be1e5ebec7d5bd14f71427d1e84f3dd0314c0f7b2291e5b200ac8c7c3b925929081900390910190a350600192915050565b600160a060020a03918216600090815260026020908152604080832093909416825291909152205490565b600354600160a060020a03163314610a9557600080fd5b610a9e81610ac6565b50565b600082821115610aad57fe5b50900390565b81810182811015610ac057fe5b92915050565b600160a060020a0381161515610adb57600080fd5b600354604051600160a060020a038084169216907f8be0079c531659141344cd1fd0a4f28419497f9722a3daafe3b4186f6b6457e090600090a36003805473ffffffffffffffffffffffffffffffffffffffff1916600160a060020a03929092169190911790555600a165627a7a72305820fdccdaa3d9501b69e7043dc6aa0b7fe629f49bd41b9e8271b835b9348e6dd3d60029608060405234801561001057600080fd5b506040516060806102cb83398101604081815282516020808501519483015160008054600185905560028054600160a060020a03808b16600160a060020a031992831681179093559281163317811682179093556003805492851692909316821790925590865291850191909152825191949390927f78bcd9513578e695140239c3f4cbed89711136f89c091755df7969d1fda2732492918290030190a150505061020b806100c06000396000f3006080604052600436106100565763ffffffff7c0100000000000000000000000000000000000000000000000000000000600035041663715018a6811461005b5780638da5cb5b14610072578063f2fde38b146100a3575b600080fd5b34801561006757600080fd5b506100706100c4565b005b34801561007e57600080fd5b50610087610130565b60408051600160a060020a039092168252519081900360200190f35b3480156100af57600080fd5b50610070600160a060020a036004351661013f565b600054600160a060020a031633146100db57600080fd5b60008054604051600160a060020a03909116917ff8df31144d9c2f0f6b59d69b8b98abd5459d07f2742c4df920b25aae33c6482091a26000805473ffffffffffffffffffffffffffffffffffffffff19169055565b600054600160a060020a031681565b600054600160a060020a0316331461015657600080fd5b61015f81610162565b50565b600160a060020a038116151561017757600080fd5b60008054604051600160a060020a03808516939216917f8be0079c531659141344cd1fd0a4f28419497f9722a3daafe3b4186f6b6457e091a36000805473ffffffffffffffffffffffffffffffffffffffff1916600160a060020a03929092169190911790555600a165627a7a723058201be3ebb51c9b61c9be240bb318c1e6341847d8cd086f7ad8956bf56346355efe0029a165627a7a7230582054ab26b71431ef3340343fd62fc2d5556b1bb6d8b2cd85b1d5c37487b261c2e60029",
  "source": "pragma solidity ^0.4.24;\n\n\nimport \"./Token.sol\";\nimport \"./Tokensale.sol\";\nimport \"./ITokenObserver.sol\";\n\n\ncontract TokenFactory {\n\n\n    address god;\n    mapping (address => address[]) public tokens;\n    ITokenObserver[] public observers;\n\n    event TokenCreated(address _owner, address _token);\n\n    // define zheton as Token contract. There is might be a pitfall, cause tokensale await ERC20\n  //  Token public zheton;\n   constructor() public {\n        god = msg.sender;\n    }\n\n    modifier onlyGod(){\n        require(msg.sender != god);\n        _;\n    }\n\n    function changeAdresses(address _god) public onlyGod {\n        god = _god;\n    }\n\n    function addObserver(address _observer) public onlyGod {\n        observers.push(ITokenObserver(_observer));\n    }\n\n\n\n\n// Function that create Token, tokensale contract and start it at once\n// Note that it can be burn a lot of gas, so I think we need to split this function in the future\n     function createTokensaleToken(string _name,\n     string _symbol, uint8 _decimals,\n     uint _INITIAL_SUPPLY, uint256 _rate, address _wallet) public returns(address){\n       Token token = createToken(_name,_symbol,_decimals,_INITIAL_SUPPLY);\n       address crd = createTokensale(_rate,_wallet,token);\n       token.prepareCrowdsale(crd);\n         return crd;\n   }\n\n// Function that creates tokensale with given parameters\n    function createTokensale(uint256 _rate, address _wallet, Token _token) public returns(address) {\n        address tokensale = address(new Tokensale(_rate,_wallet,_token));\n        for (uint i=0; i<observers.length; i++) {\n         observers[i].onTokenSaleCreated(tokensale, _wallet);\n        }\n\n        return tokensale;\n    }\n\n\n// function that create Simple Token without tokensale\n// Returns Token object with new address\n    function createToken(string _name,\n    string _symbol,\n    uint8 _decimals,\n    uint _INITIAL_SUPPLY) public returns(Token) {\n  //  address token = 0x0;\n      Token token = new Token(_name, _symbol, _decimals, _INITIAL_SUPPLY, msg.sender);\n\n        tokens[msg.sender].push(token);\n        emit TokenCreated(msg.sender, address(token));\n\n       return token;\n\n    }\n\n//@deprecated use ITokenObserver\n    function getTokens(address _owner) view public returns(address[]) {\n        return tokens[_owner];\n    }\n}\n",
  "sourcePath": "/home/dirty/Code/Token-Factory/contracts/TokenFactory.sol",
  "compiler": {
    "name": "solc",
    "version": "0.4.24+commit.e67f0147.Emscripten.clang"
  },
  "schemaVersion": "2.0.1",
  "updatedAt": "2018-11-11T13:41:50.471Z"
}