{
  "contractName": "Token",
  "abi": [
    {
      "constant": true,
      "inputs": [],
      "name": "name",
      "outputs": [
        {
          "name": "",
          "type": "string"
        }
      ],
      "payable": false,
      "stateMutability": "view",
      "type": "function"
    },
    {
      "constant": false,
      "inputs": [
        {
          "name": "_spender",
          "type": "address"
        },
        {
          "name": "_value",
          "type": "uint256"
        }
      ],
      "name": "approve",
      "outputs": [
        {
          "name": "",
          "type": "bool"
        }
      ],
      "payable": false,
      "stateMutability": "nonpayable",
      "type": "function"
    },
    {
      "constant": true,
      "inputs": [],
      "name": "totalSupply",
      "outputs": [
        {
          "name": "",
          "type": "uint256"
        }
      ],
      "payable": false,
      "stateMutability": "view",
      "type": "function"
    },
    {
      "constant": false,
      "inputs": [
        {
          "name": "_from",
          "type": "address"
        },
        {
          "name": "_to",
          "type": "address"
        },
        {
          "name": "_value",
          "type": "uint256"
        }
      ],
      "name": "transferFrom",
      "outputs": [
        {
          "name": "",
          "type": "bool"
        }
      ],
      "payable": false,
      "stateMutability": "nonpayable",
      "type": "function"
    },
    {
      "constant": true,
      "inputs": [],
      "name": "decimals",
      "outputs": [
        {
          "name": "",
          "type": "uint8"
        }
      ],
      "payable": false,
      "stateMutability": "view",
      "type": "function"
    },
    {
      "constant": false,
      "inputs": [
        {
          "name": "_spender",
          "type": "address"
        },
        {
          "name": "_subtractedValue",
          "type": "uint256"
        }
      ],
      "name": "decreaseApproval",
      "outputs": [
        {
          "name": "",
          "type": "bool"
        }
      ],
      "payable": false,
      "stateMutability": "nonpayable",
      "type": "function"
    },
    {
      "constant": true,
      "inputs": [
        {
          "name": "_owner",
          "type": "address"
        }
      ],
      "name": "balanceOf",
      "outputs": [
        {
          "name": "",
          "type": "uint256"
        }
      ],
      "payable": false,
      "stateMutability": "view",
      "type": "function"
    },
    {
      "constant": false,
      "inputs": [],
      "name": "renounceOwnership",
      "outputs": [],
      "payable": false,
      "stateMutability": "nonpayable",
      "type": "function"
    },
    {
      "constant": true,
      "inputs": [],
      "name": "prepared",
      "outputs": [
        {
          "name": "",
          "type": "bool"
        }
      ],
      "payable": false,
      "stateMutability": "view",
      "type": "function"
    },
    {
      "constant": true,
      "inputs": [],
      "name": "owner",
      "outputs": [
        {
          "name": "",
          "type": "address"
        }
      ],
      "payable": false,
      "stateMutability": "view",
      "type": "function"
    },
    {
      "constant": true,
      "inputs": [],
      "name": "symbol",
      "outputs": [
        {
          "name": "",
          "type": "string"
        }
      ],
      "payable": false,
      "stateMutability": "view",
      "type": "function"
    },
    {
      "constant": false,
      "inputs": [
        {
          "name": "_to",
          "type": "address"
        },
        {
          "name": "_value",
          "type": "uint256"
        }
      ],
      "name": "transfer",
      "outputs": [
        {
          "name": "",
          "type": "bool"
        }
      ],
      "payable": false,
      "stateMutability": "nonpayable",
      "type": "function"
    },
    {
      "constant": true,
      "inputs": [],
      "name": "Factory",
      "outputs": [
        {
          "name": "",
          "type": "address"
        }
      ],
      "payable": false,
      "stateMutability": "view",
      "type": "function"
    },
    {
      "constant": false,
      "inputs": [
        {
          "name": "_spender",
          "type": "address"
        },
        {
          "name": "_addedValue",
          "type": "uint256"
        }
      ],
      "name": "increaseApproval",
      "outputs": [
        {
          "name": "",
          "type": "bool"
        }
      ],
      "payable": false,
      "stateMutability": "nonpayable",
      "type": "function"
    },
    {
      "constant": true,
      "inputs": [
        {
          "name": "_owner",
          "type": "address"
        },
        {
          "name": "_spender",
          "type": "address"
        }
      ],
      "name": "allowance",
      "outputs": [
        {
          "name": "",
          "type": "uint256"
        }
      ],
      "payable": false,
      "stateMutability": "view",
      "type": "function"
    },
    {
      "constant": false,
      "inputs": [
        {
          "name": "_newOwner",
          "type": "address"
        }
      ],
      "name": "transferOwnership",
      "outputs": [],
      "payable": false,
      "stateMutability": "nonpayable",
      "type": "function"
    },
    {
      "inputs": [
        {
          "name": "_name",
          "type": "string"
        },
        {
          "name": "_symbol",
          "type": "string"
        },
        {
          "name": "_decimals",
          "type": "uint8"
        },
        {
          "name": "_INITIAL_SUPPLY",
          "type": "uint256"
        },
        {
          "name": "_owner",
          "type": "address"
        }
      ],
      "payable": false,
      "stateMutability": "nonpayable",
      "type": "constructor"
    },
    {
      "anonymous": false,
      "inputs": [
        {
          "indexed": true,
          "name": "previousOwner",
          "type": "address"
        }
      ],
      "name": "OwnershipRenounced",
      "type": "event"
    },
    {
      "anonymous": false,
      "inputs": [
        {
          "indexed": true,
          "name": "previousOwner",
          "type": "address"
        },
        {
          "indexed": true,
          "name": "newOwner",
          "type": "address"
        }
      ],
      "name": "OwnershipTransferred",
      "type": "event"
    },
    {
      "anonymous": false,
      "inputs": [
        {
          "indexed": true,
          "name": "owner",
          "type": "address"
        },
        {
          "indexed": true,
          "name": "spender",
          "type": "address"
        },
        {
          "indexed": false,
          "name": "value",
          "type": "uint256"
        }
      ],
      "name": "Approval",
      "type": "event"
    },
    {
      "anonymous": false,
      "inputs": [
        {
          "indexed": true,
          "name": "from",
          "type": "address"
        },
        {
          "indexed": true,
          "name": "to",
          "type": "address"
        },
        {
          "indexed": false,
          "name": "value",
          "type": "uint256"
        }
      ],
      "name": "Transfer",
      "type": "event"
    },
    {
      "constant": false,
      "inputs": [
        {
          "name": "_community",
          "type": "address"
        }
      ],
      "name": "prepareCommunity",
      "outputs": [],
      "payable": false,
      "stateMutability": "nonpayable",
      "type": "function"
    },
    {
      "constant": true,
      "inputs": [],
      "name": "unit",
      "outputs": [
        {
          "name": "",
          "type": "uint256"
        }
      ],
      "payable": false,
      "stateMutability": "view",
      "type": "function"
    }
  ],
  "bytecode": "0x60806040526006805460a860020a60ff021916905534801561002057600080fd5b50604051610d41380380610d418339810160409081528151602080840151928401516060850151608086015160038054600160a060020a0319163317905593860180519096959095019491939092909161008091600491908801906100f8565b5083516100949060059060208701906100f8565b5060068054600184905560ff191660ff949094169390931761010060a860020a03191661010033021790925560038054600160a060020a031916600160a060020a039384161790819055909116600090815260208190526040902055506101939050565b828054600181600116156101000203166002900490600052602060002090601f016020900481019282601f1061013957805160ff1916838001178555610166565b82800160010185558215610166579182015b8281111561016657825182559160200191906001019061014b565b50610172929150610176565b5090565b61019091905b80821115610172576000815560010161017c565b90565b610b9f806101a26000396000f3006080604052600436106100fb5763ffffffff7c010000000000000000000000000000000000000000000000000000000060003504166306fdde038114610100578063095ea7b31461018a57806318160ddd146101c257806323b872dd146101e957806330a9d2cb14610213578063313ce56714610236578063661884631461026157806370a0823114610285578063715018a6146102a65780638092db55146102bb5780638da5cb5b146102d0578063907af6c01461030157806395d89b4114610316578063a9059cbb1461032b578063c83dd2311461034f578063d73dd62314610364578063dd62ed3e14610388578063f2fde38b146103af575b600080fd5b34801561010c57600080fd5b506101156103d0565b6040805160208082528351818301528351919283929083019185019080838360005b8381101561014f578181015183820152602001610137565b50505050905090810190601f16801561017c5780820380516001836020036101000a031916815260200191505b509250505060405180910390f35b34801561019657600080fd5b506101ae600160a060020a036004351660243561045e565b604080519115158252519081900360200190f35b3480156101ce57600080fd5b506101d76104c4565b60408051918252519081900360200190f35b3480156101f557600080fd5b506101ae600160a060020a03600435811690602435166044356104ca565b34801561021f57600080fd5b50610234600160a060020a036004351661063f565b005b34801561024257600080fd5b5061024b6106da565b6040805160ff9092168252519081900360200190f35b34801561026d57600080fd5b506101ae600160a060020a03600435166024356106e3565b34801561029157600080fd5b506101d7600160a060020a03600435166107d2565b3480156102b257600080fd5b506102346107ed565b3480156102c757600080fd5b506101ae61085b565b3480156102dc57600080fd5b506102e561087d565b60408051600160a060020a039092168252519081900360200190f35b34801561030d57600080fd5b506101d761088c565b34801561032257600080fd5b5061011561089b565b34801561033757600080fd5b506101ae600160a060020a03600435166024356108f6565b34801561035b57600080fd5b506102e56109d5565b34801561037057600080fd5b506101ae600160a060020a03600435166024356109e9565b34801561039457600080fd5b506101d7600160a060020a0360043581169060243516610a82565b3480156103bb57600080fd5b50610234600160a060020a0360043516610aad565b6004805460408051602060026001851615610100026000190190941693909304601f810184900484028201840190925281815292918301828280156104565780601f1061042b57610100808354040283529160200191610456565b820191906000526020600020905b81548152906001019060200180831161043957829003601f168201915b505050505081565b336000818152600260209081526040808320600160a060020a038716808552908352818420869055815186815291519394909390927f8c5be1e5ebec7d5bd14f71427d1e84f3dd0314c0f7b2291e5b200ac8c7c3b925928290030190a350600192915050565b60015490565b600160a060020a0383166000908152602081905260408120548211156104ef57600080fd5b600160a060020a038416600090815260026020908152604080832033845290915290205482111561051f57600080fd5b600160a060020a038316151561053457600080fd5b600160a060020a03841660009081526020819052604090205461055d908363ffffffff610ad016565b600160a060020a038086166000908152602081905260408082209390935590851681522054610592908363ffffffff610ae216565b600160a060020a038085166000908152602081815260408083209490945591871681526002825282812033825290915220546105d4908363ffffffff610ad016565b600160a060020a03808616600081815260026020908152604080832033845282529182902094909455805186815290519287169391927fddf252ad1be2c89b69c2b068fc378daa952ba7f163c4a11628f55a4df523b3ef929181900390910190a35060019392505050565b6006546101009004600160a060020a0316331461065b57600080fd5b6006547501000000000000000000000000000000000000000000900460ff161561068457600080fd5b600154600160a060020a039091166000908152602081905260409020556006805475ff00000000000000000000000000000000000000000019167501000000000000000000000000000000000000000000179055565b60065460ff1681565b336000908152600260209081526040808320600160a060020a038616845290915281205480831061073757336000908152600260209081526040808320600160a060020a038816845290915281205561076c565b610747818463ffffffff610ad016565b336000908152600260209081526040808320600160a060020a03891684529091529020555b336000818152600260209081526040808320600160a060020a0389168085529083529281902054815190815290519293927f8c5be1e5ebec7d5bd14f71427d1e84f3dd0314c0f7b2291e5b200ac8c7c3b925929181900390910190a35060019392505050565b600160a060020a031660009081526020819052604090205490565b600354600160a060020a0316331461080457600080fd5b600354604051600160a060020a03909116907ff8df31144d9c2f0f6b59d69b8b98abd5459d07f2742c4df920b25aae33c6482090600090a26003805473ffffffffffffffffffffffffffffffffffffffff19169055565b6006547501000000000000000000000000000000000000000000900460ff1681565b600354600160a060020a031681565b60065460ff908116600a0a1690565b6005805460408051602060026001851615610100026000190190941693909304601f810184900484028201840190925281815292918301828280156104565780601f1061042b57610100808354040283529160200191610456565b3360009081526020819052604081205482111561091257600080fd5b600160a060020a038316151561092757600080fd5b33600090815260208190526040902054610947908363ffffffff610ad016565b3360009081526020819052604080822092909255600160a060020a03851681522054610979908363ffffffff610ae216565b600160a060020a038416600081815260208181526040918290209390935580518581529051919233927fddf252ad1be2c89b69c2b068fc378daa952ba7f163c4a11628f55a4df523b3ef9281900390910190a350600192915050565b6006546101009004600160a060020a031681565b336000908152600260209081526040808320600160a060020a0386168452909152812054610a1d908363ffffffff610ae216565b336000818152600260209081526040808320600160a060020a0389168085529083529281902085905580519485525191937f8c5be1e5ebec7d5bd14f71427d1e84f3dd0314c0f7b2291e5b200ac8c7c3b925929081900390910190a350600192915050565b600160a060020a03918216600090815260026020908152604080832093909416825291909152205490565b600354600160a060020a03163314610ac457600080fd5b610acd81610af5565b50565b600082821115610adc57fe5b50900390565b81810182811015610aef57fe5b92915050565b600160a060020a0381161515610b0a57600080fd5b600354604051600160a060020a038084169216907f8be0079c531659141344cd1fd0a4f28419497f9722a3daafe3b4186f6b6457e090600090a36003805473ffffffffffffffffffffffffffffffffffffffff1916600160a060020a03929092169190911790555600a165627a7a72305820623b73dc1c365a6c5300da919573551b38ac4c15f37f492d274ca55c86625fc30029",
  "source": "pragma solidity ^0.4.24;\n\nimport \"openzeppelin-solidity/contracts/ownership/Ownable.sol\";\nimport \"openzeppelin-solidity/contracts/token/ERC20/StandardToken.sol\";\n\n\ncontract Token is StandardToken, Ownable {\n    string public name;\n    string public symbol;\n    uint8 public decimals;\n    address public Factory;\n    // prepare URANUS\n    // probably need to reafactor it to a modifier\n    bool public prepared = false;\n\n    constructor(string _name,\n        string _symbol,\n        uint8 _decimals,\n        uint _INITIAL_SUPPLY,\n        address _owner) public {\n        name = _name;\n        symbol = _symbol;\n        decimals = _decimals;\n        totalSupply_ = _INITIAL_SUPPLY;\n        Factory = msg.sender;\n        owner = _owner;\n        //balances go to the owner normally\n        // Keep closed if we want to transfer tokens to the crowdsale\n        balances[owner] = totalSupply_;\n\n    }\n\n    modifier onlyFactory(){\n        require(msg.sender == Factory);\n        _;\n    }\n\n    function prepareCommunity(address _community) public onlyFactory {\n        require(prepared == false);\n        balances[_community] = totalSupply_;\n        prepared = true;\n\n    }\n\n\n    function unit() public view returns (uint256) {\n        return 10 ** decimals;\n    }\n    /*\n        NOTE  BUG found - when you try to implement function below\n        solidity compiler with truffle will CRUSH, killing truffle location map with\n        it. Don't know why is it happening, but obviously it is not expected\n        behavior\n\n        Example of exeption I got:\n        'truffle compile\n    Error parsing /home/jack/ethProjects/Token-Factory/contracts/Token.sol: ParsedContract.sol:55:1: ParserError: Function, variable, struct or modifier declaration expected.\n    import '__Truffle__NotFound.sol';\n    ^----^\n    '\n\n\n       function askDecimals() public returns (uint8){\n       uint8 result = decimals;\n       return result;\n    */\n\n\n}\n",
  "sourcePath": "/home/lexnnov/projects/Token-Factory/contracts/Token.sol",
  "compiler": {
    "name": "solc",
    "version": "0.4.24+commit.e67f0147.Emscripten.clang"
  },
  "schemaVersion": "2.0.1",
  "updatedAt": "2018-11-22T10:50:56.537Z"
}